{
  "contractName": "KYC",
  "abi": [
    {
      "inputs": [],
      "stateMutability": "nonpayable",
      "type": "constructor"
    },
    {
      "inputs": [
        {
          "internalType": "string",
          "name": "_userName",
          "type": "string"
        },
        {
          "internalType": "string",
          "name": "_customerData",
          "type": "string"
        }
      ],
      "name": "addKycRequest",
      "outputs": [
        {
          "internalType": "uint8",
          "name": "",
          "type": "uint8"
        }
      ],
      "stateMutability": "nonpayable",
      "type": "function"
    },
    {
      "inputs": [
        {
          "internalType": "string",
          "name": "_userName",
          "type": "string"
        },
        {
          "internalType": "string",
          "name": "_customerData",
          "type": "string"
        }
      ],
      "name": "addCustomer",
      "outputs": [
        {
          "internalType": "uint8",
          "name": "",
          "type": "uint8"
        }
      ],
      "stateMutability": "nonpayable",
      "type": "function"
    },
    {
      "inputs": [
        {
          "internalType": "string",
          "name": "_userName",
          "type": "string"
        },
        {
          "internalType": "string",
          "name": "customerData",
          "type": "string"
        }
      ],
      "name": "removeKYCRequest",
      "outputs": [
        {
          "internalType": "uint8",
          "name": "",
          "type": "uint8"
        }
      ],
      "stateMutability": "nonpayable",
      "type": "function"
    },
    {
      "inputs": [
        {
          "internalType": "string",
          "name": "_userName",
          "type": "string"
        }
      ],
      "name": "removeCustomer",
      "outputs": [
        {
          "internalType": "uint8",
          "name": "",
          "type": "uint8"
        }
      ],
      "stateMutability": "nonpayable",
      "type": "function"
    },
    {
      "inputs": [
        {
          "internalType": "string",
          "name": "_userName",
          "type": "string"
        }
      ],
      "name": "viewCustomer",
      "outputs": [
        {
          "internalType": "string",
          "name": "",
          "type": "string"
        },
        {
          "internalType": "string",
          "name": "",
          "type": "string"
        },
        {
          "internalType": "address",
          "name": "",
          "type": "address"
        }
      ],
      "stateMutability": "view",
      "type": "function"
    },
    {
      "inputs": [
        {
          "internalType": "string",
          "name": "_userName",
          "type": "string"
        },
        {
          "internalType": "string",
          "name": "_newcustomerData",
          "type": "string"
        }
      ],
      "name": "modifyCustomer",
      "outputs": [],
      "stateMutability": "nonpayable",
      "type": "function"
    },
    {
      "inputs": [
        {
          "internalType": "address",
          "name": "bankAddress",
          "type": "address"
        },
        {
          "internalType": "uint256",
          "name": "index",
          "type": "uint256"
        }
      ],
      "name": "getBankRequset",
      "outputs": [
        {
          "internalType": "string",
          "name": "",
          "type": "string"
        },
        {
          "internalType": "string",
          "name": "",
          "type": "string"
        },
        {
          "internalType": "address",
          "name": "",
          "type": "address"
        },
        {
          "internalType": "bool",
          "name": "",
          "type": "bool"
        }
      ],
      "stateMutability": "nonpayable",
      "type": "function"
    },
    {
      "inputs": [
        {
          "internalType": "address",
          "name": "bankAddress",
          "type": "address"
        }
      ],
      "name": "upvoteBank",
      "outputs": [
        {
          "internalType": "uint8",
          "name": "",
          "type": "uint8"
        }
      ],
      "stateMutability": "nonpayable",
      "type": "function"
    },
    {
      "inputs": [
        {
          "internalType": "string",
          "name": "userName",
          "type": "string"
        }
      ],
      "name": "getCustomerRating",
      "outputs": [
        {
          "internalType": "uint256",
          "name": "",
          "type": "uint256"
        }
      ],
      "stateMutability": "view",
      "type": "function"
    },
    {
      "inputs": [
        {
          "internalType": "address",
          "name": "bankAddress",
          "type": "address"
        }
      ],
      "name": "getBankRating",
      "outputs": [
        {
          "internalType": "uint256",
          "name": "",
          "type": "uint256"
        }
      ],
      "stateMutability": "view",
      "type": "function"
    },
    {
      "inputs": [
        {
          "internalType": "string",
          "name": "_userName",
          "type": "string"
        }
      ],
      "name": "upvoteCustomer",
      "outputs": [
        {
          "internalType": "uint8",
          "name": "",
          "type": "uint8"
        }
      ],
      "stateMutability": "nonpayable",
      "type": "function"
    },
    {
      "inputs": [
        {
          "internalType": "address",
          "name": "bankAddress",
          "type": "address"
        }
      ],
      "name": "getBankDetail",
      "outputs": [
        {
          "internalType": "string",
          "name": "",
          "type": "string"
        },
        {
          "internalType": "address",
          "name": "",
          "type": "address"
        },
        {
          "internalType": "uint256",
          "name": "",
          "type": "uint256"
        },
        {
          "internalType": "uint256",
          "name": "",
          "type": "uint256"
        },
        {
          "internalType": "string",
          "name": "",
          "type": "string"
        }
      ],
      "stateMutability": "view",
      "type": "function"
    },
    {
      "inputs": [
        {
          "internalType": "string",
          "name": "name",
          "type": "string"
        },
        {
          "internalType": "address",
          "name": "bankAddress",
          "type": "address"
        },
        {
          "internalType": "string",
          "name": "bankRegistration",
          "type": "string"
        }
      ],
      "name": "addBank",
      "outputs": [
        {
          "internalType": "string",
          "name": "",
          "type": "string"
        }
      ],
      "stateMutability": "nonpayable",
      "type": "function"
    },
    {
      "inputs": [
        {
          "internalType": "address",
          "name": "bankAddress",
          "type": "address"
        }
      ],
      "name": "removeBank",
      "outputs": [
        {
          "internalType": "string",
          "name": "",
          "type": "string"
        }
      ],
      "stateMutability": "nonpayable",
      "type": "function"
    }
  ],
  "bytecode": "0x608060405234801561001057600080fd5b50336000806101000a81548173ffffffffffffffffffffffffffffffffffffffff021916908373ffffffffffffffffffffffffffffffffffffffff160217905550613d22806100606000396000f3fe608060405234801561001057600080fd5b50600436106100ea5760003560e01c8063b8144a721161008c578063dc4009a411610066578063dc4009a4146102d8578063f2f4ed8f14610308578063f72860ca14610338578063fc55ea9d14610354576100ea565b8063b8144a7214610248578063ccfa8e7114610278578063d4a46c51146102a8576100ea565b806349fb94e2116100c857806349fb94e214610185578063604ec061146101b55780638eafe0f0146101e85780639649650c14610218576100ea565b8063107925bb146100ef57806323d236c6146101215780633190abc014610155575b600080fd5b61010960048036038101906101049190612b2e565b610384565b60405161011893929190612c37565b60405180910390f35b61013b60048036038101906101369190612ca8565b6105e1565b60405161014c959493929190612cee565b60405180910390f35b61016f600480360381019061016a9190612d4f565b61091e565b60405161017c9190612de3565b60405180910390f35b61019f600480360381019061019a9190612ca8565b610c5e565b6040516101ac9190612de3565b60405180910390f35b6101cf60048036038101906101ca9190612e2a565b610f44565b6040516101df9493929190612e85565b60405180910390f35b61020260048036038101906101fd9190612b2e565b611394565b60405161020f9190612ed8565b60405180910390f35b610232600480360381019061022d9190612ca8565b611419565b60405161023f9190612ef3565b60405180910390f35b610262600480360381019061025d9190612ca8565b6116f3565b60405161026f9190612ed8565b60405180910390f35b610292600480360381019061028d9190612f15565b6117de565b60405161029f9190612ef3565b60405180910390f35b6102c260048036038101906102bd9190612d4f565b611c7f565b6040516102cf9190612de3565b60405180910390f35b6102f260048036038101906102ed9190612d4f565b611fec565b6040516102ff9190612de3565b60405180910390f35b610322600480360381019061031d9190612b2e565b6121d0565b60405161032f9190612de3565b60405180910390f35b610352600480360381019061034d9190612d4f565b6125df565b005b61036e60048036038101906103699190612b2e565b6126c2565b60405161037b9190612de3565b60405180910390f35b60608060008073ffffffffffffffffffffffffffffffffffffffff166001856040516103b09190612fdc565b908152602001604051809103902060050160009054906101000a900473ffffffffffffffffffffffffffffffffffffffff1673ffffffffffffffffffffffffffffffffffffffff1603610438576040517f08c379a000000000000000000000000000000000000000000000000000000000815260040161042f90613065565b60405180910390fd5b6001846040516104489190612fdc565b90815260200160405180910390206000016001856040516104699190612fdc565b908152602001604051809103902060010160018660405161048a9190612fdc565b908152602001604051809103902060050160009054906101000a900473ffffffffffffffffffffffffffffffffffffffff168280546104c8906130b4565b80601f01602080910402602001604051908101604052809291908181526020018280546104f4906130b4565b80156105415780601f1061051657610100808354040283529160200191610541565b820191906000526020600020905b81548152906001019060200180831161052457829003601f168201915b50505050509250818054610554906130b4565b80601f0160208091040260200160405190810160405280929190818152602001828054610580906130b4565b80156105cd5780601f106105a2576101008083540402835291602001916105cd565b820191906000526020600020905b8154815290600101906020018083116105b057829003601f168201915b505050505091509250925092509193909250565b60606000806000606060005b600680549050811015610913578673ffffffffffffffffffffffffffffffffffffffff1660068281548110610625576106246130e5565b5b9060005260206000200160009054906101000a900473ffffffffffffffffffffffffffffffffffffffff1673ffffffffffffffffffffffffffffffffffffffff160361090057600560008873ffffffffffffffffffffffffffffffffffffffff1673ffffffffffffffffffffffffffffffffffffffff168152602001908152602001600020600001600560008973ffffffffffffffffffffffffffffffffffffffff1673ffffffffffffffffffffffffffffffffffffffff16815260200190815260200160002060010160009054906101000a900473ffffffffffffffffffffffffffffffffffffffff16600560008a73ffffffffffffffffffffffffffffffffffffffff1673ffffffffffffffffffffffffffffffffffffffff16815260200190815260200160002060020154600560008b73ffffffffffffffffffffffffffffffffffffffff1673ffffffffffffffffffffffffffffffffffffffff16815260200190815260200160002060030154600560008c73ffffffffffffffffffffffffffffffffffffffff1673ffffffffffffffffffffffffffffffffffffffff1681526020019081526020016000206004018480546107e4906130b4565b80601f0160208091040260200160405190810160405280929190818152602001828054610810906130b4565b801561085d5780601f106108325761010080835404028352916020019161085d565b820191906000526020600020905b81548152906001019060200180831161084057829003601f168201915b50505050509450808054610870906130b4565b80601f016020809104026020016040519081016040528092919081815260200182805461089c906130b4565b80156108e95780601f106108be576101008083540402835291602001916108e9565b820191906000526020600020905b8154815290600101906020018083116108cc57829003601f168201915b505050505090509550955095509550955050610915565b808061090b90613143565b9150506105ed565b505b91939590929450565b600080600090505b600680549050811015610c525760068181548110610947576109466130e5565b5b9060005260206000200160009054906101000a900473ffffffffffffffffffffffffffffffffffffffff1673ffffffffffffffffffffffffffffffffffffffff163373ffffffffffffffffffffffffffffffffffffffff1603610c3f5760005b600880549050811015610c3d576109db600882815481106109cb576109ca6130e5565b5b906000526020600020018561283f565b15610c2a57600073ffffffffffffffffffffffffffffffffffffffff16600186604051610a089190612fdc565b908152602001604051809103902060050160009054906101000a900473ffffffffffffffffffffffffffffffffffffffff1673ffffffffffffffffffffffffffffffffffffffff1614610a90576040517f08c379a0000000000000000000000000000000000000000000000000000000008152600401610a8790613223565b60405180910390fd5b60011515600785604051610aa49190612fdc565b908152602001604051809103902060030160009054906101000a900460ff16151514610b05576040517f08c379a0000000000000000000000000000000000000000000000000000000008152600401610afc906132db565b60405180910390fd5b84600186604051610b169190612fdc565b90815260200160405180910390206000019081610b3391906134a7565b5083600186604051610b459190612fdc565b90815260200160405180910390206001019081610b6291906134a7565b5033600186604051610b749190612fdc565b908152602001604051809103902060050160006101000a81548173ffffffffffffffffffffffffffffffffffffffff021916908373ffffffffffffffffffffffffffffffffffffffff1602179055506000600186604051610bd59190612fdc565b908152602001604051809103902060040181905550600285908060018154018082558091505060019003906000526020600020016000909190919091509081610c1e91906134a7565b50600192505050610c58565b8080610c3590613143565b9150506109a7565b505b8080610c4a90613143565b915050610926565b50600090505b92915050565b600080600090505b600680549050811015610f395760068181548110610c8757610c866130e5565b5b9060005260206000200160009054906101000a900473ffffffffffffffffffffffffffffffffffffffff1673ffffffffffffffffffffffffffffffffffffffff163373ffffffffffffffffffffffffffffffffffffffff1603610f26576000600b60008573ffffffffffffffffffffffffffffffffffffffff1673ffffffffffffffffffffffffffffffffffffffff16815260200190815260200160002060003373ffffffffffffffffffffffffffffffffffffffff1673ffffffffffffffffffffffffffffffffffffffff1681526020019081526020016000205414610da3576040517f08c379a0000000000000000000000000000000000000000000000000000000008152600401610d9a906135eb565b60405180910390fd5b6001600b60008573ffffffffffffffffffffffffffffffffffffffff1673ffffffffffffffffffffffffffffffffffffffff16815260200190815260200160002060003373ffffffffffffffffffffffffffffffffffffffff1673ffffffffffffffffffffffffffffffffffffffff16815260200190815260200160002081905550600c60008473ffffffffffffffffffffffffffffffffffffffff1673ffffffffffffffffffffffffffffffffffffffff1681526020019081526020016000206000815480929190610e7590613143565b91905055506006805490506064600c60008673ffffffffffffffffffffffffffffffffffffffff1673ffffffffffffffffffffffffffffffffffffffff16815260200190815260200160002054610ecc919061360b565b610ed6919061367c565b600560008573ffffffffffffffffffffffffffffffffffffffff1673ffffffffffffffffffffffffffffffffffffffff168152602001908152602001600020600201819055506000915050610f3f565b8080610f3190613143565b915050610c66565b50600190505b919050565b60608060008060005b600680549050811015611143578673ffffffffffffffffffffffffffffffffffffffff1660068281548110610f8557610f846130e5565b5b9060005260206000200160009054906101000a900473ffffffffffffffffffffffffffffffffffffffff1673ffffffffffffffffffffffffffffffffffffffff16036111305760005b60088054905081101561112e578773ffffffffffffffffffffffffffffffffffffffff16600760088381548110611008576110076130e5565b5b9060005260206000200160405161101f9190613730565b908152602001604051809103902060010160009054906101000a900473ffffffffffffffffffffffffffffffffffffffff1673ffffffffffffffffffffffffffffffffffffffff161480156110c3575060001515600760088381548110611089576110886130e5565b5b906000526020600020016040516110a09190613730565b908152602001604051809103902060030160009054906101000a900460ff161515145b1561111b57600a600882815481106110de576110dd6130e5565b5b906000526020600020019080600181540180825580915050600190039060005260206000200160009091909190915090816111199190613772565b505b808061112690613143565b915050610fce565b505b808061113b90613143565b915050610f4d565b506007600a868154811061115a576111596130e5565b5b906000526020600020016040516111719190613730565b90815260200160405180910390206000016007600a8781548110611198576111976130e5565b5b906000526020600020016040516111af9190613730565b90815260200160405180910390206002016007600a88815481106111d6576111d56130e5565b5b906000526020600020016040516111ed9190613730565b908152602001604051809103902060010160009054906101000a900473ffffffffffffffffffffffffffffffffffffffff166007600a8981548110611235576112346130e5565b5b9060005260206000200160405161124c9190613730565b908152602001604051809103902060030160009054906101000a900460ff16838054611277906130b4565b80601f01602080910402602001604051908101604052809291908181526020018280546112a3906130b4565b80156112f05780601f106112c5576101008083540402835291602001916112f0565b820191906000526020600020905b8154815290600101906020018083116112d357829003601f168201915b50505050509350828054611303906130b4565b80601f016020809104026020016040519081016040528092919081815260200182805461132f906130b4565b801561137c5780601f106113515761010080835404028352916020019161137c565b820191906000526020600020905b81548152906001019060200180831161135f57829003601f168201915b50505050509250935093509350935092959194509250565b600080600090505b600280549050811015611412576113d0600282815481106113c0576113bf6130e5565b5b906000526020600020018461283f565b156113ff576001836040516113e59190612fdc565b908152602001604051809103902060030154915050611414565b808061140a90613143565b91505061139c565b505b919050565b606060008054906101000a900473ffffffffffffffffffffffffffffffffffffffff1673ffffffffffffffffffffffffffffffffffffffff163373ffffffffffffffffffffffffffffffffffffffff16146114a9576040517f08c379a00000000000000000000000000000000000000000000000000000000081526004016114a0906138a6565b60405180910390fd5b60005b6006805490508110156116d1578273ffffffffffffffffffffffffffffffffffffffff16600682815481106114e4576114e36130e5565b5b9060005260206000200160009054906101000a900473ffffffffffffffffffffffffffffffffffffffff1673ffffffffffffffffffffffffffffffffffffffff16036116be57600560008473ffffffffffffffffffffffffffffffffffffffff1673ffffffffffffffffffffffffffffffffffffffff1681526020019081526020016000206000808201600061157a9190612977565b6001820160006101000a81549073ffffffffffffffffffffffffffffffffffffffff0219169055600282016000905560038201600090556004820160006115c19190612977565b505060006001826115d291906138c6565b90505b60068054905081101561169c57600681815481106115f6576115f56130e5565b5b9060005260206000200160009054906101000a900473ffffffffffffffffffffffffffffffffffffffff16600660018361163091906138fa565b81548110611641576116406130e5565b5b9060005260206000200160006101000a81548173ffffffffffffffffffffffffffffffffffffffff021916908373ffffffffffffffffffffffffffffffffffffffff160217905550808061169490613143565b9150506115d5565b50604051806060016040528060318152602001613c67603191399150506116ee565b80806116c990613143565b9150506114ac565b506040518060600160405280602d8152602001613c98602d913990505b919050565b600080600090505b6006805490508110156117d7578273ffffffffffffffffffffffffffffffffffffffff1660068281548110611733576117326130e5565b5b9060005260206000200160009054906101000a900473ffffffffffffffffffffffffffffffffffffffff1673ffffffffffffffffffffffffffffffffffffffff16036117c457600560008473ffffffffffffffffffffffffffffffffffffffff1673ffffffffffffffffffffffffffffffffffffffff168152602001908152602001600020600201549150506117d9565b80806117cf90613143565b9150506116fb565b505b919050565b606060008054906101000a900473ffffffffffffffffffffffffffffffffffffffff1673ffffffffffffffffffffffffffffffffffffffff163373ffffffffffffffffffffffffffffffffffffffff161461186e576040517f08c379a0000000000000000000000000000000000000000000000000000000008152600401611865906138a6565b60405180910390fd5b600073ffffffffffffffffffffffffffffffffffffffff16600560008573ffffffffffffffffffffffffffffffffffffffff1673ffffffffffffffffffffffffffffffffffffffff16815260200190815260200160002060010160009054906101000a900473ffffffffffffffffffffffffffffffffffffffff1673ffffffffffffffffffffffffffffffffffffffff161461193f576040517f08c379a0000000000000000000000000000000000000000000000000000000008152600401611936906139a0565b60405180910390fd5b600073ffffffffffffffffffffffffffffffffffffffff16600d836040516119679190612fdc565b908152602001604051809103902060009054906101000a900473ffffffffffffffffffffffffffffffffffffffff1673ffffffffffffffffffffffffffffffffffffffff16146119ec576040517f08c379a00000000000000000000000000000000000000000000000000000000081526004016119e390613a32565b60405180910390fd5b83600560008573ffffffffffffffffffffffffffffffffffffffff1673ffffffffffffffffffffffffffffffffffffffff1681526020019081526020016000206000019081611a3b91906134a7565b5082600560008573ffffffffffffffffffffffffffffffffffffffff1673ffffffffffffffffffffffffffffffffffffffff16815260200190815260200160002060010160006101000a81548173ffffffffffffffffffffffffffffffffffffffff021916908373ffffffffffffffffffffffffffffffffffffffff1602179055506000600560008573ffffffffffffffffffffffffffffffffffffffff1673ffffffffffffffffffffffffffffffffffffffff168152602001908152602001600020600201819055506000600560008573ffffffffffffffffffffffffffffffffffffffff1673ffffffffffffffffffffffffffffffffffffffff1681526020019081526020016000206003018190555081600560008573ffffffffffffffffffffffffffffffffffffffff1673ffffffffffffffffffffffffffffffffffffffff1681526020019081526020016000206004019081611b9c91906134a7565b506006839080600181540180825580915050600190039060005260206000200160009091909190916101000a81548173ffffffffffffffffffffffffffffffffffffffff021916908373ffffffffffffffffffffffffffffffffffffffff16021790555082600d83604051611c119190612fdc565b908152602001604051809103902060006101000a81548173ffffffffffffffffffffffffffffffffffffffff021916908373ffffffffffffffffffffffffffffffffffffffff160217905550604051806060016040528060288152602001613cc56028913990509392505050565b600080600090505b600680549050811015611fe05760068181548110611ca857611ca76130e5565b5b9060005260206000200160009054906101000a900473ffffffffffffffffffffffffffffffffffffffff1673ffffffffffffffffffffffffffffffffffffffff163373ffffffffffffffffffffffffffffffffffffffff1603611fcd573373ffffffffffffffffffffffffffffffffffffffff16600784604051611d2c9190612fdc565b908152602001604051809103902060010160009054906101000a900473ffffffffffffffffffffffffffffffffffffffff1673ffffffffffffffffffffffffffffffffffffffff1603611db4576040517f08c379a0000000000000000000000000000000000000000000000000000000008152600401611dab90613ac4565b60405180910390fd5b82600784604051611dc59190612fdc565b90815260200160405180910390206002019081611de291906134a7565b5083600784604051611df49190612fdc565b90815260200160405180910390206000019081611e1191906134a7565b5033600784604051611e239190612fdc565b908152602001604051809103902060010160006101000a81548173ffffffffffffffffffffffffffffffffffffffff021916908373ffffffffffffffffffffffffffffffffffffffff160217905550600560003373ffffffffffffffffffffffffffffffffffffffff1673ffffffffffffffffffffffffffffffffffffffff1681526020019081526020016000206003016000815480929190611ec590613143565b91905055506032600560003373ffffffffffffffffffffffffffffffffffffffff1673ffffffffffffffffffffffffffffffffffffffff1681526020019081526020016000206002015411611f53576000600784604051611f269190612fdc565b908152602001604051809103902060030160006101000a81548160ff021916908315150217905550611f8e565b6001600784604051611f659190612fdc565b908152602001604051809103902060030160006101000a81548160ff0219169083151502179055505b600883908060018154018082558091505060019003906000526020600020016000909190919091509081611fc291906134a7565b506001915050611fe6565b8080611fd890613143565b915050611c87565b50600090505b92915050565b6000806000905061201d6007846040516120069190612fdc565b90815260200160405180910390206000018561283f565b61205c576040517f08c379a000000000000000000000000000000000000000000000000000000000815260040161205390613b56565b60405180910390fd5b600090505b6008805490508160ff1610156121c45761209b60088260ff168154811061208b5761208a6130e5565b5b906000526020600020018461283f565b156121b1576007836040516120b09190612fdc565b9081526020016040518091039020600080820160006120cf9190612977565b6001820160006101000a81549073ffffffffffffffffffffffffffffffffffffffff02191690556002820160006121069190612977565b6003820160006101000a81549060ff02191690555050600060018261212b9190613b76565b60ff1690505b6008805490508110156121a65760088181548110612152576121516130e5565b5b90600052602060002001600860018361216b91906138fa565b8154811061217c5761217b6130e5565b5b9060005260206000200190816121929190613772565b50808061219e90613143565b915050612131565b5060019150506121ca565b80806121bc90613bab565b915050612061565b60009150505b92915050565b600080600090505b6002805490508110156125d45761220c600282815481106121fc576121fb6130e5565b5b906000526020600020018461283f565b156125c15760006009846040516122239190612fdc565b908152602001604051809103902060003373ffffffffffffffffffffffffffffffffffffffff1673ffffffffffffffffffffffffffffffffffffffff16815260200190815260200160002054146122af576040517f08c379a00000000000000000000000000000000000000000000000000000000081526004016122a690613c46565b60405180910390fd5b60016009846040516122c19190612fdc565b908152602001604051809103902060003373ffffffffffffffffffffffffffffffffffffffff1673ffffffffffffffffffffffffffffffffffffffff168152602001908152602001600020819055506001836040516123209190612fdc565b9081526020016040518091039020600401600081548092919061234290613143565b9190505550600680549050606460018560405161235f9190612fdc565b90815260200160405180910390206004015461237b919061360b565b612385919061367c565b6001846040516123959190612fdc565b90815260200160405180910390206003018190555060326001846040516123bc9190612fdc565b90815260200160405180910390206003015411156125b757826003846040516123e59190612fdc565b9081526020016040518091039020600001908161240291906134a7565b506001836040516124139190612fdc565b90815260200160405180910390206001016003846040516124349190612fdc565b908152602001604051809103902060010190816124519190613772565b506001836040516124629190612fdc565b9081526020016040518091039020600301546003846040516124849190612fdc565b9081526020016040518091039020600301819055506001836040516124a99190612fdc565b9081526020016040518091039020600401546003846040516124cb9190612fdc565b9081526020016040518091039020600401819055506001836040516124f09190612fdc565b908152602001604051809103902060050160009054906101000a900473ffffffffffffffffffffffffffffffffffffffff166003846040516125329190612fdc565b908152602001604051809103902060050160006101000a81548173ffffffffffffffffffffffffffffffffffffffff021916908373ffffffffffffffffffffffffffffffffffffffff1602179055506004839080600181540180825580915050600190039060005260206000200160009091909190915090816125b591906134a7565b505b60019150506125da565b80806125cc90613143565b9150506121d8565b50600090505b919050565b600073ffffffffffffffffffffffffffffffffffffffff166001836040516126079190612fdc565b908152602001604051809103902060050160009054906101000a900473ffffffffffffffffffffffffffffffffffffffff1673ffffffffffffffffffffffffffffffffffffffff160361268f576040517f08c379a000000000000000000000000000000000000000000000000000000000815260040161268690613065565b60405180910390fd5b806001836040516126a09190612fdc565b908152602001604051809103902060010190816126bd91906134a7565b505050565b600080600090505b600280549050811015612834576126fe600282815481106126ee576126ed6130e5565b5b906000526020600020018461283f565b15612821576001836040516127139190612fdc565b9081526020016040518091039020600080820160006127329190612977565b6001820160006127429190612977565b6002820160006101000a81549060ff0219169055600382016000905560048201600090556005820160006101000a81549073ffffffffffffffffffffffffffffffffffffffff02191690555050600060018261279e91906138c6565b90505b60028054905081101561281657600281815481106127c2576127c16130e5565b5b9060005260206000200160026001836127db91906138fa565b815481106127ec576127eb6130e5565b5b9060005260206000200190816128029190613772565b50808061280e90613143565b9150506127a1565b50600191505061283a565b808061282c90613143565b9150506126ca565b50600090505b919050565b60008083905060008390508051828054612858906130b4565b90501461286a57600092505050612971565b60005b828054612879906130b4565b905081101561296957818181518110612895576128946130e5565b5b602001015160f81c60f81b7effffffffffffffffffffffffffffffffffffffffffffffffffffffffffffff1916838281546128cf906130b4565b81106128de576128dd6130e5565b5b8154600116156128fd5790600052602060002090602091828204019190065b9054901a7f0100000000000000000000000000000000000000000000000000000000000000027effffffffffffffffffffffffffffffffffffffffffffffffffffffffffffff1916146129565760009350505050612971565b808061296190613143565b91505061286d565b506001925050505b92915050565b508054612983906130b4565b6000825580601f1061299557506129b4565b601f0160209004906000526020600020908101906129b391906129b7565b5b50565b5b808211156129d05760008160009055506001016129b8565b5090565b6000604051905090565b600080fd5b600080fd5b600080fd5b600080fd5b6000601f19601f8301169050919050565b7f4e487b7100000000000000000000000000000000000000000000000000000000600052604160045260246000fd5b612a3b826129f2565b810181811067ffffffffffffffff82111715612a5a57612a59612a03565b5b80604052505050565b6000612a6d6129d4565b9050612a798282612a32565b919050565b600067ffffffffffffffff821115612a9957612a98612a03565b5b612aa2826129f2565b9050602081019050919050565b82818337600083830152505050565b6000612ad1612acc84612a7e565b612a63565b905082815260208101848484011115612aed57612aec6129ed565b5b612af8848285612aaf565b509392505050565b600082601f830112612b1557612b146129e8565b5b8135612b25848260208601612abe565b91505092915050565b600060208284031215612b4457612b436129de565b5b600082013567ffffffffffffffff811115612b6257612b616129e3565b5b612b6e84828501612b00565b91505092915050565b600081519050919050565b600082825260208201905092915050565b60005b83811015612bb1578082015181840152602081019050612b96565b60008484015250505050565b6000612bc882612b77565b612bd28185612b82565b9350612be2818560208601612b93565b612beb816129f2565b840191505092915050565b600073ffffffffffffffffffffffffffffffffffffffff82169050919050565b6000612c2182612bf6565b9050919050565b612c3181612c16565b82525050565b60006060820190508181036000830152612c518186612bbd565b90508181036020830152612c658185612bbd565b9050612c746040830184612c28565b949350505050565b612c8581612c16565b8114612c9057600080fd5b50565b600081359050612ca281612c7c565b92915050565b600060208284031215612cbe57612cbd6129de565b5b6000612ccc84828501612c93565b91505092915050565b6000819050919050565b612ce881612cd5565b82525050565b600060a0820190508181036000830152612d088188612bbd565b9050612d176020830187612c28565b612d246040830186612cdf565b612d316060830185612cdf565b8181036080830152612d438184612bbd565b90509695505050505050565b60008060408385031215612d6657612d656129de565b5b600083013567ffffffffffffffff811115612d8457612d836129e3565b5b612d9085828601612b00565b925050602083013567ffffffffffffffff811115612db157612db06129e3565b5b612dbd85828601612b00565b9150509250929050565b600060ff82169050919050565b612ddd81612dc7565b82525050565b6000602082019050612df86000830184612dd4565b92915050565b612e0781612cd5565b8114612e1257600080fd5b50565b600081359050612e2481612dfe565b92915050565b60008060408385031215612e4157612e406129de565b5b6000612e4f85828601612c93565b9250506020612e6085828601612e15565b9150509250929050565b60008115159050919050565b612e7f81612e6a565b82525050565b60006080820190508181036000830152612e9f8187612bbd565b90508181036020830152612eb38186612bbd565b9050612ec26040830185612c28565b612ecf6060830184612e76565b95945050505050565b6000602082019050612eed6000830184612cdf565b92915050565b60006020820190508181036000830152612f0d8184612bbd565b905092915050565b600080600060608486031215612f2e57612f2d6129de565b5b600084013567ffffffffffffffff811115612f4c57612f4b6129e3565b5b612f5886828701612b00565b9350506020612f6986828701612c93565b925050604084013567ffffffffffffffff811115612f8a57612f896129e3565b5b612f9686828701612b00565b9150509250925092565b600081905092915050565b6000612fb682612b77565b612fc08185612fa0565b9350612fd0818560208601612b93565b80840191505092915050565b6000612fe88284612fab565b915081905092915050565b7f437573746f6d6572206973206e6f742070726573656e7420696e20746865206460008201527f6174616261736500000000000000000000000000000000000000000000000000602082015250565b600061304f602783612b82565b915061305a82612ff3565b604082019050919050565b6000602082019050818103600083015261307e81613042565b9050919050565b7f4e487b7100000000000000000000000000000000000000000000000000000000600052602260045260246000fd5b600060028204905060018216806130cc57607f821691505b6020821081036130df576130de613085565b5b50919050565b7f4e487b7100000000000000000000000000000000000000000000000000000000600052603260045260246000fd5b7f4e487b7100000000000000000000000000000000000000000000000000000000600052601160045260246000fd5b600061314e82612cd5565b91507fffffffffffffffffffffffffffffffffffffffffffffffffffffffffffffffff82036131805761317f613114565b5b600182019050919050565b7f5468697320637573746f6d657220697320616c72656164792070726573656e7460008201527f2c206d6f64696679437573746f6d657220746f2065646974207468652063757360208201527f746f6d6572206461746100000000000000000000000000000000000000000000604082015250565b600061320d604a83612b82565b91506132188261318b565b606082019050919050565b6000602082019050818103600083015261323c81613200565b9050919050565b7f6973416c6c6f7765642069732066616c73652c2062616e6b206973206e6f742060008201527f7472757374656420746f2070657266726f6d20746865207472616e736163746960208201527f6f6e000000000000000000000000000000000000000000000000000000000000604082015250565b60006132c5604283612b82565b91506132d082613243565b606082019050919050565b600060208201905081810360008301526132f4816132b8565b9050919050565b60008190508160005260206000209050919050565b60006020601f8301049050919050565b600082821b905092915050565b60006008830261335d7fffffffffffffffffffffffffffffffffffffffffffffffffffffffffffffffff82613320565b6133678683613320565b95508019841693508086168417925050509392505050565b6000819050919050565b60006133a461339f61339a84612cd5565b61337f565b612cd5565b9050919050565b6000819050919050565b6133be83613389565b6133d26133ca826133ab565b84845461332d565b825550505050565b600090565b6133e76133da565b6133f28184846133b5565b505050565b5b818110156134165761340b6000826133df565b6001810190506133f8565b5050565b601f82111561345b5761342c816132fb565b61343584613310565b81016020851015613444578190505b61345861345085613310565b8301826133f7565b50505b505050565b600082821c905092915050565b600061347e60001984600802613460565b1980831691505092915050565b6000613497838361346d565b9150826002028217905092915050565b6134b082612b77565b67ffffffffffffffff8111156134c9576134c8612a03565b5b6134d382546130b4565b6134de82828561341a565b600060209050601f83116001811461351157600084156134ff578287015190505b613509858261348b565b865550613571565b601f19841661351f866132fb565b60005b8281101561354757848901518255600182019150602085019450602081019050613522565b868310156135645784890151613560601f89168261346d565b8355505b6001600288020188555050505b505050505050565b7f596f75206861766520616c7265616479207570766f746564207468697320626160008201527f6e6b000000000000000000000000000000000000000000000000000000000000602082015250565b60006135d5602283612b82565b91506135e082613579565b604082019050919050565b60006020820190508181036000830152613604816135c8565b9050919050565b600061361682612cd5565b915061362183612cd5565b925082820261362f81612cd5565b9150828204841483151761364657613645613114565b5b5092915050565b7f4e487b7100000000000000000000000000000000000000000000000000000000600052601260045260246000fd5b600061368782612cd5565b915061369283612cd5565b9250826136a2576136a161364d565b5b828204905092915050565b600081546136ba816130b4565b6136c48186612fa0565b945060018216600081146136df57600181146136f457613727565b60ff1983168652811515820286019350613727565b6136fd856132fb565b60005b8381101561371f57815481890152600182019150602081019050613700565b838801955050505b50505092915050565b600061373c82846136ad565b915081905092915050565b600081549050613756816130b4565b9050919050565b60008190508160005260206000209050919050565b818103613780575050613858565b61378982613747565b67ffffffffffffffff8111156137a2576137a1612a03565b5b6137ac82546130b4565b6137b782828561341a565b6000601f8311600181146137e657600084156137d4578287015490505b6137de858261348b565b865550613851565b601f1984166137f48761375d565b96506137ff866132fb565b60005b8281101561382757848901548255600182019150600185019450602081019050613802565b868310156138445784890154613840601f89168261346d565b8355505b6001600288020188555050505b5050505050505b565b7f596f7520617265206e6f7420616e2061646d696e000000000000000000000000600082015250565b6000613890601483612b82565b915061389b8261385a565b602082019050919050565b600060208201905081810360008301526138bf81613883565b9050919050565b60006138d182612cd5565b91506138dc83612cd5565b92508282019050808211156138f4576138f3613114565b5b92915050565b600061390582612cd5565b915061391083612cd5565b925082820390508181111561392857613927613114565b5b92915050565b7f546869732062616e6b20697320616c726561647920616464656420746f20746860008201527f652073616d727420636f6e747261637400000000000000000000000000000000602082015250565b600061398a603083612b82565b91506139958261392e565b604082019050919050565b600060208201905081810360008301526139b98161397d565b9050919050565b7f5468697320526567697374726174696f6e206e756d62657220697320616c726560008201527f616479206173736f636169746564207769746820616e6f746865722062616e6b602082015250565b6000613a1c604083612b82565b9150613a27826139c0565b604082019050919050565b60006020820190508181036000830152613a4b81613a0f565b9050919050565b7f54686973207573657220616c7265616479206861732061204b5943207265717560008201527f65737420776974682073616d65206461746120696e2070726f636573732e0000602082015250565b6000613aae603e83612b82565b9150613ab982613a52565b604082019050919050565b60006020820190508181036000830152613add81613aa1565b9050919050565b7f506c6561736520656e7465722076616c696420557365724e616d6520616e642060008201527f437573746f6d6572204461746120486173680000000000000000000000000000602082015250565b6000613b40603283612b82565b9150613b4b82613ae4565b604082019050919050565b60006020820190508181036000830152613b6f81613b33565b9050919050565b6000613b8182612dc7565b9150613b8c83612dc7565b9250828201905060ff811115613ba557613ba4613114565b5b92915050565b6000613bb682612dc7565b915060ff8203613bc957613bc8613114565b5b600182019050919050565b7f546869732062616e6b206861766520616c7265616479207570766f746564207460008201527f68697320637573746f6d65720000000000000000000000000000000000000000602082015250565b6000613c30602c83612b82565b9150613c3b82613bd4565b604082019050919050565b60006020820190508181036000830152613c5f81613c23565b905091905056fe7375636365737366756c2072656d6f76616c206f66207468652062616e6b2066726f6d2074686520636f6e74726163742e5468652062616e6b20697320616c72656164792072656d6f7665642066726f6d2074686520636f6e74726163747375636365737366756c20656e747279206f662062616e6b20746f2074686520636f6e7472616374a2646970667358221220806d45454e194707fbc18fef8771717860e5cced5509fda0433665a20066e80a64736f6c63430008110033",
  "immutableReferences": {},
  "source": "// SPDX-License-Identifier: MIT\r\npragma solidity ^0.8.10;\r\n\r\ncontract KYC {\r\n    address admin;\r\n    /*\r\n    Struct for a customer\r\n     */\r\n    struct Customer {\r\n        string userName;\r\n        string data;\r\n        bool kycStatus;\r\n        uint256 rating;\r\n        uint256 upvotes;\r\n        address bank;\r\n    }\r\n\r\n    /*\r\n    Struct for a Bank\r\n     */\r\n    struct Bank {\r\n        string name;\r\n        address ethAddress;\r\n        uint256 rating;\r\n        uint256 kyc_count;\r\n        string regNumber;\r\n    }\r\n\r\n    /*\r\n    Struct for a KYC Request\r\n     */\r\n    struct KYCRequest {\r\n        string userName;\r\n        address bank;\r\n        string data;\r\n        bool isAllowed;\r\n    }\r\n\r\n    /*\r\n    Mapping a customer's username to the Customer struct\r\n    We also keep an array of all keys of the mapping to be able to loop through them when required.\r\n     */\r\n    mapping(string => Customer) customers;\r\n    string[] customerNames;\r\n\r\n    /*\r\n    Final customer list, mapping of customer's username to the customer Struct\r\n    */\r\n    mapping(string => Customer) final_customers;\r\n    string[] final_customerNames;\r\n\r\n    /*\r\n    Mapping a bank's address to the Bank Struct\r\n    We also keep an array of all keys of the mapping to be able to loop through them when required.\r\n     */\r\n    mapping(address => Bank) banks;\r\n    address[] bankAddresses;\r\n\r\n    /*\r\n    Mapping a customer's Data Hash to KYC request captured for that customer.\r\n    This mapping is used to keep track of every kycRequest initiated for every customer by a bank.\r\n     */\r\n    mapping(string => KYCRequest) kycRequests;\r\n    string[] customerDataList;\r\n\r\n    /*\r\n    Mapping a customer's user name with a bank's address\r\n    This mapping is used to keep track of every upvote given by a bank to a customer\r\n     */\r\n    mapping(string => mapping(address => uint256)) upvotes;\r\n\r\n    /**\r\n     * Constructor of the contract.\r\n     * We save the contract's admin as the account which deployed this contract.\r\n     */\r\n    constructor() {\r\n        admin = msg.sender;\r\n    }\r\n\r\n    /**\r\n     * Record a new KYC request on behalf of a customer\r\n     * The sender of message call is the bank itself\r\n     * @param  {string} _userName The name of the customer for whom KYC is to be done\r\n     * @param  {address} _bankEthAddress The ethAddress of the bank issuing this request\r\n     * @return {bool}        True if this function execution was successful\r\n     */\r\n    function addKycRequest(string memory _userName, string memory _customerData)\r\n        public\r\n        returns (uint8)\r\n    {\r\n        // Check that the user's KYC has not been done before, the Bank is a valid bank and it is allowed to perform KYC.\r\n\r\n        //checking if the bank is a vaid Bank\r\n\r\n        for (uint256 i = 0; i < bankAddresses.length; i++) {\r\n            if (msg.sender == bankAddresses[i]) {\r\n                //checking if the customer KYC request alreay exist\r\n                require(\r\n                    !(kycRequests[_customerData].bank == msg.sender),\r\n                    \"This user already has a KYC request with same data in process.\"\r\n                );\r\n                kycRequests[_customerData].data = _customerData;\r\n                kycRequests[_customerData].userName = _userName;\r\n                kycRequests[_customerData].bank = msg.sender;\r\n\r\n                //incrementing the kyc_count for the bank\r\n                banks[msg.sender].kyc_count++;\r\n\r\n                //checking if the BANK is a trusted bank to add KYC requests\r\n                if (banks[msg.sender].rating <= 50) {\r\n                    kycRequests[_customerData].isAllowed = false;\r\n                } else {\r\n                    kycRequests[_customerData].isAllowed = true;\r\n                }\r\n                customerDataList.push(_customerData);\r\n                return 1;\r\n            }\r\n        }\r\n        return 0; // 0 is returned in case of failure\r\n    }\r\n\r\n    /**\r\n     * Add a new customer\r\n     * @param {string} _userName Name of the customer to be added\r\n     * @param {string} _hash Hash of the customer's ID submitted for KYC\r\n     */\r\n    function addCustomer(string memory _userName, string memory _customerData)\r\n        public\r\n        returns (uint8)\r\n    {\r\n        //checking if the bank is a vaid Bank\r\n        for (uint256 i = 0; i < bankAddresses.length; i++) {\r\n            if (msg.sender == bankAddresses[i]) {\r\n                for (uint256 k = 0; k < customerDataList.length; k++) {\r\n                    if (stringsEquals(customerDataList[k], _customerData)) {\r\n                        require(\r\n                            customers[_userName].bank == address(0),\r\n                            \"This customer is already present, modifyCustomer to edit the customer data\"\r\n                        );\r\n                        require(\r\n                            kycRequests[_customerData].isAllowed == true,\r\n                            \"isAllowed is false, bank is not trusted to perfrom the transaction\"\r\n                        );\r\n                        customers[_userName].userName = _userName;\r\n                        customers[_userName].data = _customerData;\r\n                        customers[_userName].bank = msg.sender;\r\n                        customers[_userName].upvotes = 0;\r\n                        customerNames.push(_userName);\r\n                        return 1;\r\n                    }\r\n                }\r\n            }\r\n        }\r\n        return 0; // 0 is returned in case of failure\r\n    }\r\n\r\n    /**\r\n     * Remove KYC request\r\n     * @param  {string} _userName Name of the customer\r\n     * @return {uint8}         A 0 indicates failure, 1 indicates success\r\n     */\r\n    function removeKYCRequest(\r\n        string memory _userName,\r\n        string memory customerData\r\n    ) public returns (uint8) {\r\n        uint8 i = 0;\r\n        //checking if the provided username and customer Data are mapped in kycRequests\r\n        require(\r\n            (stringsEquals(kycRequests[customerData].userName, _userName)),\r\n            \"Please enter valid UserName and Customer Data Hash\"\r\n        );\r\n\r\n        //looping through customerDataList and then deleting the kycRequests and deleting the customer data hash from customerDataList array\r\n        for (i = 0; i < customerDataList.length; i++) {\r\n            if (stringsEquals(customerDataList[i], customerData)) {\r\n                delete kycRequests[customerData];\r\n                for (uint256 j = i + 1; j < customerDataList.length; j++) {\r\n                    customerDataList[j - 1] = customerDataList[j];\r\n                }\r\n                //customerDataList.length--;\r\n                return 1;\r\n            }\r\n        }\r\n        return 0; // 0 is returned if no request with the input username is found.\r\n    }\r\n\r\n    /**\r\n     * Remove customer information\r\n     * @param  {string} _userName Name of the customer\r\n     * @return {uint8}         A 0 indicates failure, 1 indicates success\r\n     */\r\n    function removeCustomer(string memory _userName) public returns (uint8) {\r\n        for (uint256 i = 0; i < customerNames.length; i++) {\r\n            if (stringsEquals(customerNames[i], _userName)) {\r\n                delete customers[_userName];\r\n                for (uint256 j = i + 1; j < customerNames.length; j++) {\r\n                    customerNames[j - 1] = customerNames[j];\r\n                }\r\n                //customerNames.length--;\r\n                return 1;\r\n            }\r\n        }\r\n        return 0;\r\n    }\r\n\r\n    function viewCustomer(string memory _userName)\r\n        public\r\n        view\r\n        returns (\r\n            string memory,\r\n            string memory,\r\n            address\r\n        )\r\n    {\r\n        require(\r\n            customers[_userName].bank != address(0),\r\n            \"Customer is not present in the database\"\r\n        );\r\n        return (\r\n            customers[_userName].userName,\r\n            customers[_userName].data,\r\n            customers[_userName].bank\r\n        );\r\n    }\r\n\r\n    function modifyCustomer(\r\n        string memory _userName,\r\n        string memory _newcustomerData\r\n    ) public {\r\n        require(\r\n            customers[_userName].bank != address(0),\r\n            \"Customer is not present in the database\"\r\n        );\r\n        customers[_userName].data = _newcustomerData;\r\n    }\r\n\r\n    /*\r\nget bank requests\r\nParameters : Unique bankAddress and Index which will rertun 1 of the yet to be validated requests.\r\nReturns : Will rertun KYC_UnValidated[index]\r\n*/\r\n    //Array to count number of invalidated KYC requests and store its customer data hash.\r\n    string[] KYC_UnValidatedCount;\r\n\r\n    function getBankRequset(address bankAddress, uint256 index)\r\n        public\r\n        returns (\r\n            string memory,\r\n            string memory,\r\n            address,\r\n            bool\r\n        )\r\n    {\r\n        //looping through bankAddresses array to check if the passed bankAddress is valid\r\n\r\n        for (uint256 i = 0; i < bankAddresses.length; i++) {\r\n            if (bankAddresses[i] == bankAddress) {\r\n                //looping through customerDataList to find all the KYC requests initiated by the bank whose address is passed\r\n                for (uint256 k = 0; k < customerDataList.length; k++) {\r\n                    //kycRequests whose isAllowed value is False and bankAddress==bankAddress passed as Parameter\r\n                    //store it in KYC_UnValidatedCount array.\r\n\r\n                    if (\r\n                        (kycRequests[customerDataList[k]].bank ==\r\n                            bankAddress) &&\r\n                        (kycRequests[customerDataList[k]].isAllowed == false)\r\n                    ) {\r\n                        KYC_UnValidatedCount.push(customerDataList[k]);\r\n                    }\r\n                }\r\n            }\r\n        }\r\n        return (\r\n            kycRequests[KYC_UnValidatedCount[index]].userName,\r\n            kycRequests[KYC_UnValidatedCount[index]].data,\r\n            kycRequests[KYC_UnValidatedCount[index]].bank,\r\n            kycRequests[KYC_UnValidatedCount[index]].isAllowed\r\n        );\r\n    }\r\n\r\n    /*\r\nUpvotes to provide rating on other banks\r\n*/\r\n    mapping(address => mapping(address => uint256)) upvotesBank;\r\n    mapping(address => uint256) upvoteCount;\r\n\r\n    function upvoteBank(address bankAddress) public returns (uint8) {\r\n        for (uint256 i = 0; i < bankAddresses.length; i++) {\r\n            if (msg.sender == bankAddresses[i]) {\r\n                require(\r\n                    upvotesBank[bankAddress][msg.sender] == 0,\r\n                    \"You have already upvoted this bank\"\r\n                );\r\n                upvotesBank[bankAddress][msg.sender] = 1;\r\n                upvoteCount[bankAddress]++;\r\n                banks[bankAddress].rating =\r\n                    (upvoteCount[bankAddress] * 100) /\r\n                    bankAddresses.length;\r\n\r\n                return 0;\r\n            }\r\n        }\r\n        return 1;\r\n    }\r\n\r\n    /*\r\n    Get customer rating\r\n    */\r\n\r\n    function getCustomerRating(string memory userName)\r\n        public\r\n        view\r\n        returns (uint256)\r\n    {\r\n        for (uint256 i = 0; i < customerNames.length; i++) {\r\n            if (stringsEquals(customerNames[i], userName))\r\n                return customers[userName].rating;\r\n        }\r\n    }\r\n\r\n    /*\r\nGet bank Rating\r\n*/\r\n    function getBankRating(address bankAddress) public view returns (uint256) {\r\n        for (uint256 i = 0; i < bankAddresses.length; i++) {\r\n            if (bankAddresses[i] == bankAddress) {\r\n                return banks[bankAddress].rating;\r\n            }\r\n        }\r\n    }\r\n\r\n    /**\r\n     * Add upvote to provide ratings on customers\r\n     * Add a new upvote from a bank\r\n     * @param {public} _userName Name of the customer to be upvoted\r\n     */\r\n    function upvoteCustomer(string memory _userName) public returns (uint8) {\r\n        for (uint256 i = 0; i < customerNames.length; i++) {\r\n            if (stringsEquals(customerNames[i], _userName)) {\r\n                require(\r\n                    upvotes[_userName][msg.sender] == 0,\r\n                    \"This bank have already upvoted this customer\"\r\n                );\r\n                upvotes[_userName][msg.sender] = 1; //storing the timestamp when vote was casted, not required though, additional\r\n                customers[_userName].upvotes++;\r\n\r\n                //updateing the rating of the customer\r\n                customers[_userName].rating =\r\n                    (customers[_userName].upvotes * 100) /\r\n                    bankAddresses.length;\r\n\r\n                if (customers[_userName].rating > 50) {\r\n                    final_customers[_userName].userName = _userName;\r\n                    final_customers[_userName].data = customers[_userName].data;\r\n                    final_customers[_userName].rating = customers[_userName]\r\n                        .rating;\r\n                    final_customers[_userName].upvotes = customers[_userName]\r\n                        .upvotes;\r\n                    final_customers[_userName].bank = customers[_userName].bank;\r\n                    final_customerNames.push(_userName);\r\n                }\r\n\r\n                return 1;\r\n            }\r\n        }\r\n        return 0;\r\n    }\r\n\r\n    /*\r\n    Get Bank Details\r\n   */\r\n    function getBankDetail(address bankAddress)\r\n        public\r\n        view\r\n        returns (\r\n            string memory,\r\n            address,\r\n            uint256,\r\n            uint256,\r\n            string memory\r\n        )\r\n    {\r\n        for (uint256 i = 0; i < bankAddresses.length; i++) {\r\n            if (bankAddresses[i] == bankAddress) {\r\n                return (\r\n                    banks[bankAddress].name,\r\n                    banks[bankAddress].ethAddress,\r\n                    banks[bankAddress].rating,\r\n                    banks[bankAddress].kyc_count,\r\n                    banks[bankAddress].regNumber\r\n                );\r\n            }\r\n        }\r\n    }\r\n\r\n    //add bank (bank can only be added by the admin (admin = person who is deploying\r\n    //smart contract)\r\n    //mapping to store bankRegistration => bank address\r\n    mapping(string => address) bankRegStore;\r\n\r\n    function addBank(\r\n        string memory name,\r\n        address bankAddress,\r\n        string memory bankRegistration\r\n    ) public returns (string memory) {\r\n        require(msg.sender == admin, \"You are not an admin\");\r\n        require(\r\n            banks[bankAddress].ethAddress == address(0),\r\n            \"This bank is already added to the samrt contract\"\r\n        );\r\n\r\n        require(\r\n            bankRegStore[bankRegistration] == address(0),\r\n            \"This Registration number is already assocaited with another bank\"\r\n        );\r\n        banks[bankAddress].name = name;\r\n        banks[bankAddress].ethAddress = bankAddress;\r\n        banks[bankAddress].rating = 0;\r\n        banks[bankAddress].kyc_count = 0;\r\n        banks[bankAddress].regNumber = bankRegistration;\r\n\r\n        bankAddresses.push(bankAddress);\r\n        bankRegStore[bankRegistration] = bankAddress;\r\n        return \"successful entry of bank to the contract\";\r\n    }\r\n\r\n    //remove bank\r\n    function removeBank(address bankAddress) public returns (string memory) {\r\n        require(msg.sender == admin, \"You are not an admin\");\r\n        for (uint256 i = 0; i < bankAddresses.length; i++) {\r\n            if (bankAddresses[i] == bankAddress) {\r\n                delete banks[bankAddress];\r\n\r\n                for (uint256 j = i + 1; j < bankAddresses.length; j++) {\r\n                    bankAddresses[j - 1] = bankAddresses[j];\r\n                }\r\n                //bankAddresses.length--;\r\n                return \"successful removal of the bank from the contract.\";\r\n            }\r\n        }\r\n\r\n        return \"The bank is already removed from the contract\";\r\n    }\r\n\r\n    // if you are using string, you can use the following function to compare two strings\r\n    // function to compare two string value\r\n    // This is an internal fucntion to compare string values\r\n    // @Params - String a and String b are passed as Parameters\r\n    // @return - This function returns true if strings are matched and false if the strings are not matching\r\n    function stringsEquals(string storage _a, string memory _b)\r\n        internal\r\n        view\r\n        returns (bool)\r\n    {\r\n        bytes storage a = bytes(_a);\r\n        bytes memory b = bytes(_b);\r\n        if (a.length != b.length) return false;\r\n        for (uint256 i = 0; i < a.length; i++) {\r\n            if (a[i] != b[i]) return false;\r\n        }\r\n        return true;\r\n    }\r\n}\r\n",
  "sourcePath": "C:\\New_Software\\Truffle-KYC\\contracts\\kyc.sol",
  "compiler": {
    "name": "solc",
    "version": "0.8.17+commit.8df45f5f.Emscripten.clang"
  },
  "schemaVersion": "3.4.11",
  "updatedAt": "2023-01-27T16:04:37.665Z",
  "devdoc": {
    "kind": "dev",
    "methods": {
      "addCustomer(string,string)": {
        "params": {
          "": "{string} _hash Hash of the customer's ID submitted for KYC"
        }
      },
      "addKycRequest(string,string)": {
        "params": {
          "": "{address} _bankEthAddress The ethAddress of the bank issuing this request"
        },
        "returns": {
          "_0": "{bool}        True if this function execution was successful"
        }
      },
      "removeCustomer(string)": {
        "params": {
          "": "{string} _userName Name of the customer"
        },
        "returns": {
          "_0": "{uint8}         A 0 indicates failure, 1 indicates success"
        }
      },
      "removeKYCRequest(string,string)": {
        "params": {
          "": "{string} _userName Name of the customer"
        },
        "returns": {
          "_0": "{uint8}         A 0 indicates failure, 1 indicates success"
        }
      },
      "upvoteCustomer(string)": {
        "params": {
          "": "{public} _userName Name of the customer to be upvoted"
        }
      }
    },
    "version": 1
  },
  "userdoc": {
    "kind": "user",
    "methods": {
      "addCustomer(string,string)": {
        "notice": "Add a new customer"
      },
      "addKycRequest(string,string)": {
        "notice": "Record a new KYC request on behalf of a customer The sender of message call is the bank itself"
      },
      "constructor": {
        "notice": "Constructor of the contract. We save the contract's admin as the account which deployed this contract."
      },
      "removeCustomer(string)": {
        "notice": "Remove customer information"
      },
      "removeKYCRequest(string,string)": {
        "notice": "Remove KYC request"
      },
      "upvoteCustomer(string)": {
        "notice": "Add upvote to provide ratings on customers Add a new upvote from a bank"
      }
    },
    "version": 1
  }
}